{
  "contractName": "Greeter",
  "abi": [
    {
      "anonymous": false,
      "inputs": [
        {
          "indexed": true,
          "internalType": "address",
          "name": "previousOwner",
          "type": "address"
        },
        {
          "indexed": true,
          "internalType": "address",
          "name": "newOwner",
          "type": "address"
        }
      ],
      "name": "OwnershipTransferred",
      "type": "event"
    },
    {
      "inputs": [],
      "name": "owner",
      "outputs": [
        {
          "internalType": "address",
          "name": "",
          "type": "address"
        }
      ],
      "stateMutability": "view",
      "type": "function"
    },
    {
      "inputs": [],
      "name": "renounceOwnership",
      "outputs": [],
      "stateMutability": "nonpayable",
      "type": "function"
    },
    {
      "inputs": [
        {
          "internalType": "address",
          "name": "newOwner",
          "type": "address"
        }
      ],
      "name": "transferOwnership",
      "outputs": [],
      "stateMutability": "nonpayable",
      "type": "function"
    },
    {
      "inputs": [],
      "name": "greet",
      "outputs": [
        {
          "internalType": "string",
          "name": "",
          "type": "string"
        }
      ],
      "stateMutability": "view",
      "type": "function"
    },
    {
      "inputs": [
        {
          "internalType": "string",
          "name": "greeting",
          "type": "string"
        }
      ],
      "name": "setGreeting",
      "outputs": [],
      "stateMutability": "nonpayable",
      "type": "function"
    }
  ],
  "bytecode": "0x60806040526040518060400160405280600b81526020017f48656c6c6f20776f726c640000000000000000000000000000000000000000008152506001908051906020019061004f92919061014a565b5034801561005c57600080fd5b5061007961006e61007e60201b60201c565b61008660201b60201c565b61024e565b600033905090565b60008060009054906101000a900473ffffffffffffffffffffffffffffffffffffffff169050816000806101000a81548173ffffffffffffffffffffffffffffffffffffffff021916908373ffffffffffffffffffffffffffffffffffffffff1602179055508173ffffffffffffffffffffffffffffffffffffffff168173ffffffffffffffffffffffffffffffffffffffff167f8be0079c531659141344cd1fd0a4f28419497f9722a3daafe3b4186f6b6457e060405160405180910390a35050565b828054610156906101ed565b90600052602060002090601f01602090048101928261017857600085556101bf565b82601f1061019157805160ff19168380011785556101bf565b828001600101855582156101bf579182015b828111156101be5782518255916020019190600101906101a3565b5b5090506101cc91906101d0565b5090565b5b808211156101e95760008160009055506001016101d1565b5090565b6000600282049050600182168061020557607f821691505b602082108114156102195761021861021f565b5b50919050565b7f4e487b7100000000000000000000000000000000000000000000000000000000600052602260045260246000fd5b61088e8061025d6000396000f3fe608060405234801561001057600080fd5b50600436106100575760003560e01c8063715018a61461005c5780638da5cb5b14610066578063a413686214610084578063cfae3217146100a0578063f2fde38b146100be575b600080fd5b6100646100da565b005b61006e610162565b60405161007b91906106d1565b60405180910390f35b61009e6004803603810190610099919061059e565b61018b565b005b6100a861021d565b6040516100b591906106ec565b60405180910390f35b6100d860048036038101906100d39190610575565b6102af565b005b6100e26103a7565b73ffffffffffffffffffffffffffffffffffffffff16610100610162565b73ffffffffffffffffffffffffffffffffffffffff1614610156576040517f08c379a000000000000000000000000000000000000000000000000000000000815260040161014d9061072e565b60405180910390fd5b61016060006103af565b565b60008060009054906101000a900473ffffffffffffffffffffffffffffffffffffffff16905090565b6101936103a7565b73ffffffffffffffffffffffffffffffffffffffff166101b1610162565b73ffffffffffffffffffffffffffffffffffffffff1614610207576040517f08c379a00000000000000000000000000000000000000000000000000000000081526004016101fe9061072e565b60405180910390fd5b818160019190610218929190610473565b505050565b60606001805461022c906107cf565b80601f0160208091040260200160405190810160405280929190818152602001828054610258906107cf565b80156102a55780601f1061027a576101008083540402835291602001916102a5565b820191906000526020600020905b81548152906001019060200180831161028857829003601f168201915b5050505050905090565b6102b76103a7565b73ffffffffffffffffffffffffffffffffffffffff166102d5610162565b73ffffffffffffffffffffffffffffffffffffffff161461032b576040517f08c379a00000000000000000000000000000000000000000000000000000000081526004016103229061072e565b60405180910390fd5b600073ffffffffffffffffffffffffffffffffffffffff168173ffffffffffffffffffffffffffffffffffffffff16141561039b576040517f08c379a00000000000000000000000000000000000000000000000000000000081526004016103929061070e565b60405180910390fd5b6103a4816103af565b50565b600033905090565b60008060009054906101000a900473ffffffffffffffffffffffffffffffffffffffff169050816000806101000a81548173ffffffffffffffffffffffffffffffffffffffff021916908373ffffffffffffffffffffffffffffffffffffffff1602179055508173ffffffffffffffffffffffffffffffffffffffff168173ffffffffffffffffffffffffffffffffffffffff167f8be0079c531659141344cd1fd0a4f28419497f9722a3daafe3b4186f6b6457e060405160405180910390a35050565b82805461047f906107cf565b90600052602060002090601f0160209004810192826104a157600085556104e8565b82601f106104ba57803560ff19168380011785556104e8565b828001600101855582156104e8579182015b828111156104e75782358255916020019190600101906104cc565b5b5090506104f591906104f9565b5090565b5b808211156105125760008160009055506001016104fa565b5090565b60008135905061052581610841565b92915050565b60008083601f84011261053d57600080fd5b8235905067ffffffffffffffff81111561055657600080fd5b60208301915083600182028301111561056e57600080fd5b9250929050565b60006020828403121561058757600080fd5b600061059584828501610516565b91505092915050565b600080602083850312156105b157600080fd5b600083013567ffffffffffffffff8111156105cb57600080fd5b6105d78582860161052b565b92509250509250929050565b6105ec8161076a565b82525050565b60006105fd8261074e565b6106078185610759565b935061061781856020860161079c565b61062081610830565b840191505092915050565b6000610638602683610759565b91507f4f776e61626c653a206e6577206f776e657220697320746865207a65726f206160008301527f64647265737300000000000000000000000000000000000000000000000000006020830152604082019050919050565b600061069e602083610759565b91507f4f776e61626c653a2063616c6c6572206973206e6f7420746865206f776e65726000830152602082019050919050565b60006020820190506106e660008301846105e3565b92915050565b6000602082019050818103600083015261070681846105f2565b905092915050565b600060208201905081810360008301526107278161062b565b9050919050565b6000602082019050818103600083015261074781610691565b9050919050565b600081519050919050565b600082825260208201905092915050565b60006107758261077c565b9050919050565b600073ffffffffffffffffffffffffffffffffffffffff82169050919050565b60005b838110156107ba57808201518184015260208101905061079f565b838111156107c9576000848401525b50505050565b600060028204905060018216806107e757607f821691505b602082108114156107fb576107fa610801565b5b50919050565b7f4e487b7100000000000000000000000000000000000000000000000000000000600052602260045260246000fd5b6000601f19601f8301169050919050565b61084a8161076a565b811461085557600080fd5b5056fea2646970667358221220eab7ea30c5fd0449c7225c4c72a1bc48751266ea561a7be82e963abe732c094d64736f6c63430008000033",
  "immutableReferences": {},
  "source": "pragma solidity >=0.4.22 < 0.9.0;\n\nimport \"@openzeppelin/contracts/access/Ownable.sol\";\n\ncontract Greeter is Ownable {\n  string private _greeting = \"Hello world\";\n  address private _owner;\n\n  function greet() external view returns(string memory) {\n    return _greeting;\n  }\n\n  function setGreeting(string calldata greeting) external onlyOwner {\n    _greeting = greeting;\n  }\n}",
  "sourcePath": "/Users/Connor/projects/play/blockchain/greeter/contracts/Greeter.sol",
  "compiler": {
    "name": "solc",
    "version": "0.8.0+commit.c7dfd78e.Emscripten.clang"
  },
  "schemaVersion": "3.4.3",
  "updatedAt": "2021-10-16T14:25:21.235Z",
  "devdoc": {
    "kind": "dev",
    "methods": {
      "owner()": {
        "details": "Returns the address of the current owner."
      },
      "renounceOwnership()": {
        "details": "Leaves the contract without owner. It will not be possible to call `onlyOwner` functions anymore. Can only be called by the current owner. NOTE: Renouncing ownership will leave the contract without an owner, thereby removing any functionality that is only available to the owner."
      },
      "transferOwnership(address)": {
        "details": "Transfers ownership of the contract to a new account (`newOwner`). Can only be called by the current owner."
      }
    },
    "version": 1
  },
  "userdoc": {
    "kind": "user",
    "methods": {},
    "version": 1
  }
}